{
  "address": "0x9f28712e5Fc9Bba86B974fB484f9D7d148cC1E54",
  "abi": [
    {
      "inputs": [
        {
          "internalType": "uint256",
          "name": "_entryFee",
          "type": "uint256"
        }
      ],
      "stateMutability": "nonpayable",
      "type": "constructor"
    },
    {
      "anonymous": false,
      "inputs": [
        {
          "indexed": false,
          "internalType": "address",
          "name": "user",
          "type": "address"
        },
        {
          "indexed": false,
          "internalType": "uint256",
          "name": "amount",
          "type": "uint256"
        }
      ],
      "name": "UserEntered",
      "type": "event"
    },
    {
      "anonymous": false,
      "inputs": [
        {
          "indexed": false,
          "internalType": "address",
          "name": "user",
          "type": "address"
        },
        {
          "indexed": false,
          "internalType": "uint256",
          "name": "amount",
          "type": "uint256"
        }
      ],
      "name": "UserLost",
      "type": "event"
    },
    {
      "anonymous": false,
      "inputs": [
        {
          "indexed": false,
          "internalType": "address",
          "name": "user",
          "type": "address"
        },
        {
          "indexed": false,
          "internalType": "uint256",
          "name": "amount",
          "type": "uint256"
        }
      ],
      "name": "UserWon",
      "type": "event"
    },
    {
      "inputs": [
        {
          "internalType": "address",
          "name": "",
          "type": "address"
        }
      ],
      "name": "BetOn",
      "outputs": [
        {
          "internalType": "uint256",
          "name": "",
          "type": "uint256"
        }
      ],
      "stateMutability": "view",
      "type": "function"
    },
    {
      "inputs": [
        {
          "internalType": "uint256",
          "name": "Bet_On",
          "type": "uint256"
        }
      ],
      "name": "enter",
      "outputs": [],
      "stateMutability": "payable",
      "type": "function"
    },
    {
      "inputs": [],
      "name": "entryFee",
      "outputs": [
        {
          "internalType": "uint256",
          "name": "",
          "type": "uint256"
        }
      ],
      "stateMutability": "view",
      "type": "function"
    },
    {
      "inputs": [
        {
          "internalType": "uint256",
          "name": "",
          "type": "uint256"
        }
      ],
      "name": "gamblers",
      "outputs": [
        {
          "internalType": "address",
          "name": "",
          "type": "address"
        }
      ],
      "stateMutability": "view",
      "type": "function"
    },
    {
      "inputs": [
        {
          "internalType": "address",
          "name": "",
          "type": "address"
        }
      ],
      "name": "gamblersToAmountBet",
      "outputs": [
        {
          "internalType": "uint256",
          "name": "",
          "type": "uint256"
        }
      ],
      "stateMutability": "view",
      "type": "function"
    },
    {
      "inputs": [],
      "name": "getBalance",
      "outputs": [
        {
          "internalType": "uint256",
          "name": "",
          "type": "uint256"
        }
      ],
      "stateMutability": "view",
      "type": "function"
    },
    {
      "inputs": [],
      "name": "getEntryFee",
      "outputs": [
        {
          "internalType": "uint256",
          "name": "",
          "type": "uint256"
        }
      ],
      "stateMutability": "view",
      "type": "function"
    },
    {
      "inputs": [],
      "name": "getOwner",
      "outputs": [
        {
          "internalType": "address",
          "name": "",
          "type": "address"
        }
      ],
      "stateMutability": "view",
      "type": "function"
    },
    {
      "inputs": [
        {
          "internalType": "address",
          "name": "user",
          "type": "address"
        }
      ],
      "name": "getUserEntryStatus",
      "outputs": [
        {
          "internalType": "bool",
          "name": "",
          "type": "bool"
        }
      ],
      "stateMutability": "view",
      "type": "function"
    },
    {
      "inputs": [
        {
          "internalType": "uint256",
          "name": "win",
          "type": "uint256"
        }
      ],
      "name": "setWinner",
      "outputs": [],
      "stateMutability": "nonpayable",
      "type": "function"
    },
    {
      "inputs": [],
      "name": "settleTeamResultLoss",
      "outputs": [],
      "stateMutability": "nonpayable",
      "type": "function"
    },
    {
      "inputs": [],
      "name": "settleTeamResultWon",
      "outputs": [],
      "stateMutability": "payable",
      "type": "function"
    },
    {
      "inputs": [
        {
          "internalType": "address",
          "name": "",
          "type": "address"
        }
      ],
      "name": "users",
      "outputs": [
        {
          "internalType": "bool",
          "name": "hasEntered",
          "type": "bool"
        }
      ],
      "stateMutability": "view",
      "type": "function"
    },
    {
      "inputs": [],
      "name": "winner",
      "outputs": [
        {
          "internalType": "uint256",
          "name": "",
          "type": "uint256"
        }
      ],
      "stateMutability": "view",
      "type": "function"
    },
    {
      "inputs": [],
      "name": "withdraw",
      "outputs": [],
      "stateMutability": "payable",
      "type": "function"
    }
  ],
  "transactionHash": "0xefe9ec9e31297f338047ad7671d42ffdd2dbe839e4084bf658cc28aa3cdb7af2",
  "args": [
    "1000000000000000000"
  ],
  "numDeployments": 3,
  "solcInputHash": "216d33aa1880c3480db2688afaee9099",
  "bytecode": "0x60c0604052600080553480156200001557600080fd5b50604051620015fe380380620015fe83398181016040528101906200003b9190620000be565b3373ffffffffffffffffffffffffffffffffffffffff1660808173ffffffffffffffffffffffffffffffffffffffff16815250508060a0818152505050620000f0565b600080fd5b6000819050919050565b620000988162000083565b8114620000a457600080fd5b50565b600081519050620000b8816200008d565b92915050565b600060208284031215620000d757620000d66200007e565b5b6000620000e784828501620000a7565b91505092915050565b60805160a0516114be6200014060003960008181610367015281816106ee015281816108320152610ae301526000818161038b0152818161049a01528181610528015261080301526114be6000f3fe6080604052600436106100e85760003560e01c8063608ca7cf1161008a578063a87430ba11610059578063a87430ba146102c8578063dfbf53ae14610305578063e586a4f014610330578063fc079c271461035b576100e8565b8063608ca7cf1461022d5780637a53326f14610244578063893d20e814610281578063a59f3e0c146102ac576100e8565b80631ed4ff0b116100c65780631ed4ff0b1461016c5780632aaf9c66146101a95780632d9f7a08146101e65780633ccfd60b14610223576100e8565b8063072ea61c146100ed5780630df716021461011857806312065fe014610141575b600080fd5b3480156100f957600080fd5b50610102610365565b60405161010f9190610f3a565b60405180910390f35b34801561012457600080fd5b5061013f600480360381019061013a9190610f86565b610389565b005b34801561014d57600080fd5b50610156610421565b6040516101639190610f3a565b60405180910390f35b34801561017857600080fd5b50610193600480360381019061018e9190611011565b610429565b6040516101a09190610f3a565b60405180910390f35b3480156101b557600080fd5b506101d060048036038101906101cb9190610f86565b610441565b6040516101dd919061104d565b60405180910390f35b3480156101f257600080fd5b5061020d60048036038101906102089190611011565b610480565b60405161021a9190610f3a565b60405180910390f35b61022b610498565b005b34801561023957600080fd5b5061024261058f565b005b34801561025057600080fd5b5061026b60048036038101906102669190611011565b6107a6565b6040516102789190611083565b60405180910390f35b34801561028d57600080fd5b506102966107ff565b6040516102a3919061104d565b60405180910390f35b6102c660048036038101906102c19190610f86565b610827565b005b3480156102d457600080fd5b506102ef60048036038101906102ea9190611011565b610aae565b6040516102fc9190611083565b60405180910390f35b34801561031157600080fd5b5061031a610ad9565b6040516103279190610f3a565b60405180910390f35b34801561033c57600080fd5b50610345610adf565b6040516103529190610f3a565b60405180910390f35b610363610b07565b005b7f000000000000000000000000000000000000000000000000000000000000000081565b7f000000000000000000000000000000000000000000000000000000000000000073ffffffffffffffffffffffffffffffffffffffff163373ffffffffffffffffffffffffffffffffffffffff1614610417576040517f08c379a000000000000000000000000000000000000000000000000000000000815260040161040e90611121565b60405180910390fd5b8060008190555050565b600047905090565b60036020528060005260406000206000915090505481565b6004818154811061045157600080fd5b906000526020600020016000915054906101000a900473ffffffffffffffffffffffffffffffffffffffff1681565b60026020528060005260406000206000915090505481565b7f000000000000000000000000000000000000000000000000000000000000000073ffffffffffffffffffffffffffffffffffffffff163373ffffffffffffffffffffffffffffffffffffffff1614610526576040517f08c379a000000000000000000000000000000000000000000000000000000000815260040161051d90611121565b60405180910390fd5b7f000000000000000000000000000000000000000000000000000000000000000073ffffffffffffffffffffffffffffffffffffffff166108fc479081150290604051600060405180830381858888f1935050505015801561058c573d6000803e3d6000fd5b50565b600160003373ffffffffffffffffffffffffffffffffffffffff1673ffffffffffffffffffffffffffffffffffffffff16815260200190815260200160002060000160009054906101000a900460ff1661061e576040517f08c379a00000000000000000000000000000000000000000000000000000000081526004016106159061118d565b60405180910390fd5b6001600360003373ffffffffffffffffffffffffffffffffffffffff1673ffffffffffffffffffffffffffffffffffffffff1681526020019081526020016000205414806106ab57506002600360003373ffffffffffffffffffffffffffffffffffffffff1673ffffffffffffffffffffffffffffffffffffffff16815260200190815260200160002054145b6106ea576040517f08c379a00000000000000000000000000000000000000000000000000000000081526004016106e1906111f9565b60405180910390fd5b60007f000000000000000000000000000000000000000000000000000000000000000090506000600160003373ffffffffffffffffffffffffffffffffffffffff1673ffffffffffffffffffffffffffffffffffffffff16815260200190815260200160002060000160006101000a81548160ff0219169083151502179055507f1314fbd9b3f625c600265ea995805937eb1f31ad6be05ea00a535eca47c00068338260405161079b929190611219565b60405180910390a150565b6000600160008373ffffffffffffffffffffffffffffffffffffffff1673ffffffffffffffffffffffffffffffffffffffff16815260200190815260200160002060000160009054906101000a900460ff169050919050565b60007f0000000000000000000000000000000000000000000000000000000000000000905090565b670de0b6b3a76400007f000000000000000000000000000000000000000000000000000000000000000061085b91906112a0565b34101561089d576040517f08c379a00000000000000000000000000000000000000000000000000000000081526004016108949061131d565b60405180910390fd5b600160003373ffffffffffffffffffffffffffffffffffffffff1673ffffffffffffffffffffffffffffffffffffffff16815260200190815260200160002060000160009054906101000a900460ff161561092d576040517f08c379a000000000000000000000000000000000000000000000000000000000815260040161092490611389565b60405180910390fd5b34600260003373ffffffffffffffffffffffffffffffffffffffff1673ffffffffffffffffffffffffffffffffffffffff1681526020019081526020016000208190555080600360003373ffffffffffffffffffffffffffffffffffffffff1673ffffffffffffffffffffffffffffffffffffffff168152602001908152602001600020819055506004339080600181540180825580915050600190039060005260206000200160009091909190916101000a81548173ffffffffffffffffffffffffffffffffffffffff021916908373ffffffffffffffffffffffffffffffffffffffff16021790555060018060003373ffffffffffffffffffffffffffffffffffffffff1673ffffffffffffffffffffffffffffffffffffffff16815260200190815260200160002060000160006101000a81548160ff0219169083151502179055507fb662f0beeb38e2aa790755858e25ee4edac93ec1ed278a0d1d28f86721a646b33334604051610aa3929190611219565b60405180910390a150565b60016020528060005260406000206000915090508060000160009054906101000a900460ff16905081565b60005481565b60007f0000000000000000000000000000000000000000000000000000000000000000905090565b600160003373ffffffffffffffffffffffffffffffffffffffff1673ffffffffffffffffffffffffffffffffffffffff16815260200190815260200160002060000160009054906101000a900460ff16610b96576040517f08c379a0000000000000000000000000000000000000000000000000000000008152600401610b8d9061118d565b60405180910390fd5b6001600360003373ffffffffffffffffffffffffffffffffffffffff1673ffffffffffffffffffffffffffffffffffffffff168152602001908152602001600020541480610c2357506002600360003373ffffffffffffffffffffffffffffffffffffffff1673ffffffffffffffffffffffffffffffffffffffff16815260200190815260200160002054145b610c62576040517f08c379a0000000000000000000000000000000000000000000000000000000008152600401610c59906111f9565b60405180910390fd5b6000805b600480549050811015610d98576000546003600060048481548110610c8e57610c8d6113a9565b5b9060005260206000200160009054906101000a900473ffffffffffffffffffffffffffffffffffffffff1673ffffffffffffffffffffffffffffffffffffffff1673ffffffffffffffffffffffffffffffffffffffff1681526020019081526020016000205414610d85576002600060048381548110610d1157610d106113a9565b5b9060005260206000200160009054906101000a900473ffffffffffffffffffffffffffffffffffffffff1673ffffffffffffffffffffffffffffffffffffffff1673ffffffffffffffffffffffffffffffffffffffff1681526020019081526020016000205482610d8291906113d8565b91505b8080610d909061140c565b915050610c66565b50600060048054905082610dac91906112a0565b600260003373ffffffffffffffffffffffffffffffffffffffff1673ffffffffffffffffffffffffffffffffffffffff16815260200190815260200160002054610df691906113d8565b90503373ffffffffffffffffffffffffffffffffffffffff166108fc600260003373ffffffffffffffffffffffffffffffffffffffff1673ffffffffffffffffffffffffffffffffffffffff1681526020019081526020016000205483610e5d9190611454565b9081150290604051600060405180830381858888f19350505050158015610e88573d6000803e3d6000fd5b506000600160003373ffffffffffffffffffffffffffffffffffffffff1673ffffffffffffffffffffffffffffffffffffffff16815260200190815260200160002060000160006101000a81548160ff0219169083151502179055507f2dc4fba839a9fe8e3b5e9d22ce43d01c6a4445ed0d08a40f010bacb02a9774733382604051610f15929190611219565b60405180910390a15050565b6000819050919050565b610f3481610f21565b82525050565b6000602082019050610f4f6000830184610f2b565b92915050565b600080fd5b610f6381610f21565b8114610f6e57600080fd5b50565b600081359050610f8081610f5a565b92915050565b600060208284031215610f9c57610f9b610f55565b5b6000610faa84828501610f71565b91505092915050565b600073ffffffffffffffffffffffffffffffffffffffff82169050919050565b6000610fde82610fb3565b9050919050565b610fee81610fd3565b8114610ff957600080fd5b50565b60008135905061100b81610fe5565b92915050565b60006020828403121561102757611026610f55565b5b600061103584828501610ffc565b91505092915050565b61104781610fd3565b82525050565b6000602082019050611062600083018461103e565b92915050565b60008115159050919050565b61107d81611068565b82525050565b60006020820190506110986000830184611074565b92915050565b600082825260208201905092915050565b7f4f6e6c7920746865206f776e65722063616e2063616c6c20746869732066756e60008201527f6374696f6e000000000000000000000000000000000000000000000000000000602082015250565b600061110b60258361109e565b9150611116826110af565b604082019050919050565b6000602082019050818103600083015261113a816110fe565b9050919050565b7f5573657220686173206e6f7420656e7465726564000000000000000000000000600082015250565b600061117760148361109e565b915061118282611141565b602082019050919050565b600060208201905081810360008301526111a68161116a565b9050919050565b7f4d6174636820696e2050726f6772657373000000000000000000000000000000600082015250565b60006111e360118361109e565b91506111ee826111ad565b602082019050919050565b60006020820190508181036000830152611212816111d6565b9050919050565b600060408201905061122e600083018561103e565b61123b6020830184610f2b565b9392505050565b7f4e487b7100000000000000000000000000000000000000000000000000000000600052601260045260246000fd5b7f4e487b7100000000000000000000000000000000000000000000000000000000600052601160045260246000fd5b60006112ab82610f21565b91506112b683610f21565b9250826112c6576112c5611242565b5b828204905092915050565b7f496e73756666696369656e7420656e7472792066656500000000000000000000600082015250565b600061130760168361109e565b9150611312826112d1565b602082019050919050565b60006020820190508181036000830152611336816112fa565b9050919050565b7f596f75206861766520616c726561647920656e74657265640000000000000000600082015250565b600061137360188361109e565b915061137e8261133d565b602082019050919050565b600060208201905081810360008301526113a281611366565b9050919050565b7f4e487b7100000000000000000000000000000000000000000000000000000000600052603260045260246000fd5b60006113e382610f21565b91506113ee83610f21565b925082820190508082111561140657611405611271565b5b92915050565b600061141782610f21565b91507fffffffffffffffffffffffffffffffffffffffffffffffffffffffffffffffff820361144957611448611271565b5b600182019050919050565b600061145f82610f21565b915061146a83610f21565b925082820390508181111561148257611481611271565b5b9291505056fea26469706673582212207764f5d04efa794777664c2f09096c9dea5d68f427be346434e98e60e251327364736f6c63430008120033",
  "devdoc": {
    "kind": "dev",
    "methods": {},
    "version": 1
  },
  "userdoc": {
    "kind": "user",
    "methods": {},
    "version": 1
  },
  "storageLayout": {
    "storage": [
      {
        "astId": 4342,
        "contract": "contracts/Gamble.sol:Gamble",
        "label": "winner",
        "offset": 0,
        "slot": "0",
        "type": "t_uint256"
      },
      {
        "astId": 4350,
        "contract": "contracts/Gamble.sol:Gamble",
        "label": "users",
        "offset": 0,
        "slot": "1",
        "type": "t_mapping(t_address,t_struct(User)4345_storage)"
      },
      {
        "astId": 4354,
        "contract": "contracts/Gamble.sol:Gamble",
        "label": "gamblersToAmountBet",
        "offset": 0,
        "slot": "2",
        "type": "t_mapping(t_address,t_uint256)"
      },
      {
        "astId": 4358,
        "contract": "contracts/Gamble.sol:Gamble",
        "label": "BetOn",
        "offset": 0,
        "slot": "3",
        "type": "t_mapping(t_address,t_uint256)"
      },
      {
        "astId": 4361,
        "contract": "contracts/Gamble.sol:Gamble",
        "label": "gamblers",
        "offset": 0,
        "slot": "4",
        "type": "t_array(t_address)dyn_storage"
      }
    ],
    "types": {
      "t_address": {
        "encoding": "inplace",
        "label": "address",
        "numberOfBytes": "20"
      },
      "t_array(t_address)dyn_storage": {
        "base": "t_address",
        "encoding": "dynamic_array",
        "label": "address[]",
        "numberOfBytes": "32"
      },
      "t_bool": {
        "encoding": "inplace",
        "label": "bool",
        "numberOfBytes": "1"
      },
      "t_mapping(t_address,t_struct(User)4345_storage)": {
        "encoding": "mapping",
        "key": "t_address",
        "label": "mapping(address => struct Gamble.User)",
        "numberOfBytes": "32",
        "value": "t_struct(User)4345_storage"
      },
      "t_mapping(t_address,t_uint256)": {
        "encoding": "mapping",
        "key": "t_address",
        "label": "mapping(address => uint256)",
        "numberOfBytes": "32",
        "value": "t_uint256"
      },
      "t_struct(User)4345_storage": {
        "encoding": "inplace",
        "label": "struct Gamble.User",
        "members": [
          {
            "astId": 4344,
            "contract": "contracts/Gamble.sol:Gamble",
            "label": "hasEntered",
            "offset": 0,
            "slot": "0",
            "type": "t_bool"
          }
        ],
        "numberOfBytes": "32"
      },
      "t_uint256": {
        "encoding": "inplace",
        "label": "uint256",
        "numberOfBytes": "32"
      }
    }
  }
}