{
  "address": "0xB537B14F71eBb64A5eceaAb46143803A9D7cAa4f",
  "abi": [
    {
      "inputs": [],
      "stateMutability": "nonpayable",
      "type": "constructor"
    },
    {
      "anonymous": false,
      "inputs": [
        {
          "indexed": true,
          "internalType": "address",
          "name": "owner",
          "type": "address"
        },
        {
          "indexed": true,
          "internalType": "address",
          "name": "approved",
          "type": "address"
        },
        {
          "indexed": true,
          "internalType": "uint256",
          "name": "tokenId",
          "type": "uint256"
        }
      ],
      "name": "Approval",
      "type": "event"
    },
    {
      "anonymous": false,
      "inputs": [
        {
          "indexed": true,
          "internalType": "address",
          "name": "owner",
          "type": "address"
        },
        {
          "indexed": true,
          "internalType": "address",
          "name": "operator",
          "type": "address"
        },
        {
          "indexed": false,
          "internalType": "bool",
          "name": "approved",
          "type": "bool"
        }
      ],
      "name": "ApprovalForAll",
      "type": "event"
    },
    {
      "anonymous": false,
      "inputs": [
        {
          "indexed": false,
          "internalType": "uint256",
          "name": "_fromTokenId",
          "type": "uint256"
        },
        {
          "indexed": false,
          "internalType": "uint256",
          "name": "_toTokenId",
          "type": "uint256"
        }
      ],
      "name": "BatchMetadataUpdate",
      "type": "event"
    },
    {
      "anonymous": false,
      "inputs": [
        {
          "indexed": false,
          "internalType": "uint256",
          "name": "_tokenId",
          "type": "uint256"
        }
      ],
      "name": "MetadataUpdate",
      "type": "event"
    },
    {
      "anonymous": false,
      "inputs": [
        {
          "indexed": true,
          "internalType": "address",
          "name": "previousOwner",
          "type": "address"
        },
        {
          "indexed": true,
          "internalType": "address",
          "name": "newOwner",
          "type": "address"
        }
      ],
      "name": "OwnershipTransferred",
      "type": "event"
    },
    {
      "anonymous": false,
      "inputs": [
        {
          "indexed": true,
          "internalType": "address",
          "name": "from",
          "type": "address"
        },
        {
          "indexed": true,
          "internalType": "address",
          "name": "to",
          "type": "address"
        },
        {
          "indexed": true,
          "internalType": "uint256",
          "name": "tokenId",
          "type": "uint256"
        }
      ],
      "name": "Transfer",
      "type": "event"
    },
    {
      "inputs": [
        {
          "internalType": "address",
          "name": "to",
          "type": "address"
        },
        {
          "internalType": "uint256",
          "name": "tokenId",
          "type": "uint256"
        }
      ],
      "name": "approve",
      "outputs": [],
      "stateMutability": "nonpayable",
      "type": "function"
    },
    {
      "inputs": [
        {
          "internalType": "address",
          "name": "owner",
          "type": "address"
        }
      ],
      "name": "balanceOf",
      "outputs": [
        {
          "internalType": "uint256",
          "name": "",
          "type": "uint256"
        }
      ],
      "stateMutability": "view",
      "type": "function"
    },
    {
      "inputs": [
        {
          "internalType": "uint256",
          "name": "tokenId",
          "type": "uint256"
        }
      ],
      "name": "getApproved",
      "outputs": [
        {
          "internalType": "address",
          "name": "",
          "type": "address"
        }
      ],
      "stateMutability": "view",
      "type": "function"
    },
    {
      "inputs": [],
      "name": "getTokenCounter",
      "outputs": [
        {
          "internalType": "uint256",
          "name": "",
          "type": "uint256"
        }
      ],
      "stateMutability": "view",
      "type": "function"
    },
    {
      "inputs": [
        {
          "internalType": "address",
          "name": "owner",
          "type": "address"
        },
        {
          "internalType": "address",
          "name": "operator",
          "type": "address"
        }
      ],
      "name": "isApprovedForAll",
      "outputs": [
        {
          "internalType": "bool",
          "name": "",
          "type": "bool"
        }
      ],
      "stateMutability": "view",
      "type": "function"
    },
    {
      "inputs": [
        {
          "internalType": "string",
          "name": "tokenURI",
          "type": "string"
        }
      ],
      "name": "mintNFT",
      "outputs": [
        {
          "internalType": "uint256",
          "name": "",
          "type": "uint256"
        }
      ],
      "stateMutability": "nonpayable",
      "type": "function"
    },
    {
      "inputs": [],
      "name": "name",
      "outputs": [
        {
          "internalType": "string",
          "name": "",
          "type": "string"
        }
      ],
      "stateMutability": "view",
      "type": "function"
    },
    {
      "inputs": [],
      "name": "owner",
      "outputs": [
        {
          "internalType": "address",
          "name": "",
          "type": "address"
        }
      ],
      "stateMutability": "view",
      "type": "function"
    },
    {
      "inputs": [
        {
          "internalType": "uint256",
          "name": "tokenId",
          "type": "uint256"
        }
      ],
      "name": "ownerOf",
      "outputs": [
        {
          "internalType": "address",
          "name": "",
          "type": "address"
        }
      ],
      "stateMutability": "view",
      "type": "function"
    },
    {
      "inputs": [],
      "name": "renounceOwnership",
      "outputs": [],
      "stateMutability": "nonpayable",
      "type": "function"
    },
    {
      "inputs": [
        {
          "internalType": "address",
          "name": "from",
          "type": "address"
        },
        {
          "internalType": "address",
          "name": "to",
          "type": "address"
        },
        {
          "internalType": "uint256",
          "name": "tokenId",
          "type": "uint256"
        }
      ],
      "name": "safeTransferFrom",
      "outputs": [],
      "stateMutability": "nonpayable",
      "type": "function"
    },
    {
      "inputs": [
        {
          "internalType": "address",
          "name": "from",
          "type": "address"
        },
        {
          "internalType": "address",
          "name": "to",
          "type": "address"
        },
        {
          "internalType": "uint256",
          "name": "tokenId",
          "type": "uint256"
        },
        {
          "internalType": "bytes",
          "name": "data",
          "type": "bytes"
        }
      ],
      "name": "safeTransferFrom",
      "outputs": [],
      "stateMutability": "nonpayable",
      "type": "function"
    },
    {
      "inputs": [
        {
          "internalType": "address",
          "name": "operator",
          "type": "address"
        },
        {
          "internalType": "bool",
          "name": "approved",
          "type": "bool"
        }
      ],
      "name": "setApprovalForAll",
      "outputs": [],
      "stateMutability": "nonpayable",
      "type": "function"
    },
    {
      "inputs": [
        {
          "internalType": "bytes4",
          "name": "interfaceId",
          "type": "bytes4"
        }
      ],
      "name": "supportsInterface",
      "outputs": [
        {
          "internalType": "bool",
          "name": "",
          "type": "bool"
        }
      ],
      "stateMutability": "view",
      "type": "function"
    },
    {
      "inputs": [],
      "name": "symbol",
      "outputs": [
        {
          "internalType": "string",
          "name": "",
          "type": "string"
        }
      ],
      "stateMutability": "view",
      "type": "function"
    },
    {
      "inputs": [
        {
          "internalType": "uint256",
          "name": "tokenId",
          "type": "uint256"
        }
      ],
      "name": "tokenURI",
      "outputs": [
        {
          "internalType": "string",
          "name": "",
          "type": "string"
        }
      ],
      "stateMutability": "view",
      "type": "function"
    },
    {
      "inputs": [
        {
          "internalType": "address",
          "name": "from",
          "type": "address"
        },
        {
          "internalType": "address",
          "name": "to",
          "type": "address"
        },
        {
          "internalType": "uint256",
          "name": "tokenId",
          "type": "uint256"
        }
      ],
      "name": "transferFrom",
      "outputs": [],
      "stateMutability": "nonpayable",
      "type": "function"
    },
    {
      "inputs": [
        {
          "internalType": "address",
          "name": "newOwner",
          "type": "address"
        }
      ],
      "name": "transferOwnership",
      "outputs": [],
      "stateMutability": "nonpayable",
      "type": "function"
    }
  ],
  "transactionHash": "0x42a8cbdb507d4d518a8cb94f0804196e9fca466014f8eb4b00d1c0e0b807d007",
  "args": [],
  "numDeployments": 1,
  "solcInputHash": "216d33aa1880c3480db2688afaee9099",
  "bytecode": "0x60806040523480156200001157600080fd5b506040518060400160405280600581526020017f53617474610000000000000000000000000000000000000000000000000000008152506040518060400160405280600381526020017f535444000000000000000000000000000000000000000000000000000000000081525081600090816200008f91906200041a565b508060019081620000a191906200041a565b505050620000c4620000b8620000d260201b60201c565b620000da60201b60201c565b600060088190555062000501565b600033905090565b6000600760009054906101000a900473ffffffffffffffffffffffffffffffffffffffff16905081600760006101000a81548173ffffffffffffffffffffffffffffffffffffffff021916908373ffffffffffffffffffffffffffffffffffffffff1602179055508173ffffffffffffffffffffffffffffffffffffffff168173ffffffffffffffffffffffffffffffffffffffff167f8be0079c531659141344cd1fd0a4f28419497f9722a3daafe3b4186f6b6457e060405160405180910390a35050565b600081519050919050565b7f4e487b7100000000000000000000000000000000000000000000000000000000600052604160045260246000fd5b7f4e487b7100000000000000000000000000000000000000000000000000000000600052602260045260246000fd5b600060028204905060018216806200022257607f821691505b602082108103620002385762000237620001da565b5b50919050565b60008190508160005260206000209050919050565b60006020601f8301049050919050565b600082821b905092915050565b600060088302620002a27fffffffffffffffffffffffffffffffffffffffffffffffffffffffffffffffff8262000263565b620002ae868362000263565b95508019841693508086168417925050509392505050565b6000819050919050565b6000819050919050565b6000620002fb620002f5620002ef84620002c6565b620002d0565b620002c6565b9050919050565b6000819050919050565b6200031783620002da565b6200032f620003268262000302565b84845462000270565b825550505050565b600090565b6200034662000337565b620003538184846200030c565b505050565b5b818110156200037b576200036f6000826200033c565b60018101905062000359565b5050565b601f821115620003ca5762000394816200023e565b6200039f8462000253565b81016020851015620003af578190505b620003c7620003be8562000253565b83018262000358565b50505b505050565b600082821c905092915050565b6000620003ef60001984600802620003cf565b1980831691505092915050565b60006200040a8383620003dc565b9150826002028217905092915050565b6200042582620001a0565b67ffffffffffffffff811115620004415762000440620001ab565b5b6200044d825462000209565b6200045a8282856200037f565b600060209050601f8311600181146200049257600084156200047d578287015190505b620004898582620003fc565b865550620004f9565b601f198416620004a2866200023e565b60005b82811015620004cc57848901518255600182019150602085019450602081019050620004a5565b86831015620004ec5784890151620004e8601f891682620003dc565b8355505b6001600288020188555050505b505050505050565b612eaf80620005116000396000f3fe608060405234801561001057600080fd5b50600436106101165760003560e01c8063715018a6116100a2578063b88d4fde11610071578063b88d4fde146102cd578063c87b56dd146102e9578063e985e9c514610319578063f2fde38b14610349578063fb37e8831461036557610116565b8063715018a61461026b5780638da5cb5b1461027557806395d89b4114610293578063a22cb465146102b157610116565b806323b872dd116100e957806323b872dd146101b557806342842e0e146101d15780636352211e146101ed5780636e02007d1461021d57806370a082311461023b57610116565b806301ffc9a71461011b57806306fdde031461014b578063081812fc14610169578063095ea7b314610199575b600080fd5b61013560048036038101906101309190611c50565b610395565b6040516101429190611c98565b60405180910390f35b6101536103f6565b6040516101609190611d43565b60405180910390f35b610183600480360381019061017e9190611d9b565b610488565b6040516101909190611e09565b60405180910390f35b6101b360048036038101906101ae9190611e50565b6104ce565b005b6101cf60048036038101906101ca9190611e90565b6105e5565b005b6101eb60048036038101906101e69190611e90565b610645565b005b61020760048036038101906102029190611d9b565b610665565b6040516102149190611e09565b60405180910390f35b6102256106eb565b6040516102329190611ef2565b60405180910390f35b61025560048036038101906102509190611f0d565b6106f5565b6040516102629190611ef2565b60405180910390f35b6102736107ac565b005b61027d6107c0565b60405161028a9190611e09565b60405180910390f35b61029b6107ea565b6040516102a89190611d43565b60405180910390f35b6102cb60048036038101906102c69190611f66565b61087c565b005b6102e760048036038101906102e291906120db565b610892565b005b61030360048036038101906102fe9190611d9b565b6108f4565b6040516103109190611d43565b60405180910390f35b610333600480360381019061032e919061215e565b610a06565b6040516103409190611c98565b60405180910390f35b610363600480360381019061035e9190611f0d565b610a9a565b005b61037f600480360381019061037a919061223f565b610b1d565b60405161038c9190611ef2565b60405180910390f35b6000634906490660e01b7bffffffffffffffffffffffffffffffffffffffffffffffffffffffff1916827bffffffffffffffffffffffffffffffffffffffffffffffffffffffff191614806103ef57506103ee82610b5d565b5b9050919050565b606060008054610405906122b7565b80601f0160208091040260200160405190810160405280929190818152602001828054610431906122b7565b801561047e5780601f106104535761010080835404028352916020019161047e565b820191906000526020600020905b81548152906001019060200180831161046157829003601f168201915b5050505050905090565b600061049382610c3f565b6004600083815260200190815260200160002060009054906101000a900473ffffffffffffffffffffffffffffffffffffffff169050919050565b60006104d982610665565b90508073ffffffffffffffffffffffffffffffffffffffff168373ffffffffffffffffffffffffffffffffffffffff1603610549576040517f08c379a00000000000000000000000000000000000000000000000000000000081526004016105409061235a565b60405180910390fd5b8073ffffffffffffffffffffffffffffffffffffffff16610568610c8a565b73ffffffffffffffffffffffffffffffffffffffff161480610597575061059681610591610c8a565b610a06565b5b6105d6576040517f08c379a00000000000000000000000000000000000000000000000000000000081526004016105cd906123ec565b60405180910390fd5b6105e08383610c92565b505050565b6105f66105f0610c8a565b82610d4b565b610635576040517f08c379a000000000000000000000000000000000000000000000000000000000815260040161062c9061247e565b60405180910390fd5b610640838383610de0565b505050565b61066083838360405180602001604052806000815250610892565b505050565b600080610671836110d9565b9050600073ffffffffffffffffffffffffffffffffffffffff168173ffffffffffffffffffffffffffffffffffffffff16036106e2576040517f08c379a00000000000000000000000000000000000000000000000000000000081526004016106d9906124ea565b60405180910390fd5b80915050919050565b6000600854905090565b60008073ffffffffffffffffffffffffffffffffffffffff168273ffffffffffffffffffffffffffffffffffffffff1603610765576040517f08c379a000000000000000000000000000000000000000000000000000000000815260040161075c9061257c565b60405180910390fd5b600360008373ffffffffffffffffffffffffffffffffffffffff1673ffffffffffffffffffffffffffffffffffffffff168152602001908152602001600020549050919050565b6107b4611116565b6107be6000611194565b565b6000600760009054906101000a900473ffffffffffffffffffffffffffffffffffffffff16905090565b6060600180546107f9906122b7565b80601f0160208091040260200160405190810160405280929190818152602001828054610825906122b7565b80156108725780601f1061084757610100808354040283529160200191610872565b820191906000526020600020905b81548152906001019060200180831161085557829003601f168201915b5050505050905090565b61088e610887610c8a565b838361125a565b5050565b6108a361089d610c8a565b83610d4b565b6108e2576040517f08c379a00000000000000000000000000000000000000000000000000000000081526004016108d99061247e565b60405180910390fd5b6108ee848484846113c6565b50505050565b60606108ff82610c3f565b600060066000848152602001908152602001600020805461091f906122b7565b80601f016020809104026020016040519081016040528092919081815260200182805461094b906122b7565b80156109985780601f1061096d57610100808354040283529160200191610998565b820191906000526020600020905b81548152906001019060200180831161097b57829003601f168201915b5050505050905060006109a9611422565b905060008151036109be578192505050610a01565b6000825111156109f35780826040516020016109db9291906125d8565b60405160208183030381529060405292505050610a01565b6109fc84611439565b925050505b919050565b6000600560008473ffffffffffffffffffffffffffffffffffffffff1673ffffffffffffffffffffffffffffffffffffffff16815260200190815260200160002060008373ffffffffffffffffffffffffffffffffffffffff1673ffffffffffffffffffffffffffffffffffffffff16815260200190815260200160002060009054906101000a900460ff16905092915050565b610aa2611116565b600073ffffffffffffffffffffffffffffffffffffffff168173ffffffffffffffffffffffffffffffffffffffff1603610b11576040517f08c379a0000000000000000000000000000000000000000000000000000000008152600401610b089061266e565b60405180910390fd5b610b1a81611194565b50565b6000600160086000828254610b3291906126bd565b9250508190555060006008549050610b4a33826114a1565b610b5481846116be565b80915050919050565b60007f80ac58cd000000000000000000000000000000000000000000000000000000007bffffffffffffffffffffffffffffffffffffffffffffffffffffffff1916827bffffffffffffffffffffffffffffffffffffffffffffffffffffffff19161480610c2857507f5b5e139f000000000000000000000000000000000000000000000000000000007bffffffffffffffffffffffffffffffffffffffffffffffffffffffff1916827bffffffffffffffffffffffffffffffffffffffffffffffffffffffff1916145b80610c385750610c3782611762565b5b9050919050565b610c48816117cc565b610c87576040517f08c379a0000000000000000000000000000000000000000000000000000000008152600401610c7e906124ea565b60405180910390fd5b50565b600033905090565b816004600083815260200190815260200160002060006101000a81548173ffffffffffffffffffffffffffffffffffffffff021916908373ffffffffffffffffffffffffffffffffffffffff160217905550808273ffffffffffffffffffffffffffffffffffffffff16610d0583610665565b73ffffffffffffffffffffffffffffffffffffffff167f8c5be1e5ebec7d5bd14f71427d1e84f3dd0314c0f7b2291e5b200ac8c7c3b92560405160405180910390a45050565b600080610d5783610665565b90508073ffffffffffffffffffffffffffffffffffffffff168473ffffffffffffffffffffffffffffffffffffffff161480610d995750610d988185610a06565b5b80610dd757508373ffffffffffffffffffffffffffffffffffffffff16610dbf84610488565b73ffffffffffffffffffffffffffffffffffffffff16145b91505092915050565b8273ffffffffffffffffffffffffffffffffffffffff16610e0082610665565b73ffffffffffffffffffffffffffffffffffffffff1614610e56576040517f08c379a0000000000000000000000000000000000000000000000000000000008152600401610e4d90612763565b60405180910390fd5b600073ffffffffffffffffffffffffffffffffffffffff168273ffffffffffffffffffffffffffffffffffffffff1603610ec5576040517f08c379a0000000000000000000000000000000000000000000000000000000008152600401610ebc906127f5565b60405180910390fd5b610ed2838383600161180d565b8273ffffffffffffffffffffffffffffffffffffffff16610ef282610665565b73ffffffffffffffffffffffffffffffffffffffff1614610f48576040517f08c379a0000000000000000000000000000000000000000000000000000000008152600401610f3f90612763565b60405180910390fd5b6004600082815260200190815260200160002060006101000a81549073ffffffffffffffffffffffffffffffffffffffff02191690556001600360008573ffffffffffffffffffffffffffffffffffffffff1673ffffffffffffffffffffffffffffffffffffffff168152602001908152602001600020600082825403925050819055506001600360008473ffffffffffffffffffffffffffffffffffffffff1673ffffffffffffffffffffffffffffffffffffffff16815260200190815260200160002060008282540192505081905550816002600083815260200190815260200160002060006101000a81548173ffffffffffffffffffffffffffffffffffffffff021916908373ffffffffffffffffffffffffffffffffffffffff160217905550808273ffffffffffffffffffffffffffffffffffffffff168473ffffffffffffffffffffffffffffffffffffffff167fddf252ad1be2c89b69c2b068fc378daa952ba7f163c4a11628f55a4df523b3ef60405160405180910390a46110d48383836001611813565b505050565b60006002600083815260200190815260200160002060009054906101000a900473ffffffffffffffffffffffffffffffffffffffff169050919050565b61111e610c8a565b73ffffffffffffffffffffffffffffffffffffffff1661113c6107c0565b73ffffffffffffffffffffffffffffffffffffffff1614611192576040517f08c379a000000000000000000000000000000000000000000000000000000000815260040161118990612861565b60405180910390fd5b565b6000600760009054906101000a900473ffffffffffffffffffffffffffffffffffffffff16905081600760006101000a81548173ffffffffffffffffffffffffffffffffffffffff021916908373ffffffffffffffffffffffffffffffffffffffff1602179055508173ffffffffffffffffffffffffffffffffffffffff168173ffffffffffffffffffffffffffffffffffffffff167f8be0079c531659141344cd1fd0a4f28419497f9722a3daafe3b4186f6b6457e060405160405180910390a35050565b8173ffffffffffffffffffffffffffffffffffffffff168373ffffffffffffffffffffffffffffffffffffffff16036112c8576040517f08c379a00000000000000000000000000000000000000000000000000000000081526004016112bf906128cd565b60405180910390fd5b80600560008573ffffffffffffffffffffffffffffffffffffffff1673ffffffffffffffffffffffffffffffffffffffff16815260200190815260200160002060008473ffffffffffffffffffffffffffffffffffffffff1673ffffffffffffffffffffffffffffffffffffffff16815260200190815260200160002060006101000a81548160ff0219169083151502179055508173ffffffffffffffffffffffffffffffffffffffff168373ffffffffffffffffffffffffffffffffffffffff167f17307eab39ab6107e8899845ad3d59bd9653f200f220920489ca2b5937696c31836040516113b99190611c98565b60405180910390a3505050565b6113d1848484610de0565b6113dd84848484611819565b61141c576040517f08c379a00000000000000000000000000000000000000000000000000000000081526004016114139061295f565b60405180910390fd5b50505050565b606060405180602001604052806000815250905090565b606061144482610c3f565b600061144e611422565b9050600081511161146e5760405180602001604052806000815250611499565b80611478846119a0565b6040516020016114899291906125d8565b6040516020818303038152906040525b915050919050565b600073ffffffffffffffffffffffffffffffffffffffff168273ffffffffffffffffffffffffffffffffffffffff1603611510576040517f08c379a0000000000000000000000000000000000000000000000000000000008152600401611507906129cb565b60405180910390fd5b611519816117cc565b15611559576040517f08c379a000000000000000000000000000000000000000000000000000000000815260040161155090612a37565b60405180910390fd5b61156760008383600161180d565b611570816117cc565b156115b0576040517f08c379a00000000000000000000000000000000000000000000000000000000081526004016115a790612a37565b60405180910390fd5b6001600360008473ffffffffffffffffffffffffffffffffffffffff1673ffffffffffffffffffffffffffffffffffffffff16815260200190815260200160002060008282540192505081905550816002600083815260200190815260200160002060006101000a81548173ffffffffffffffffffffffffffffffffffffffff021916908373ffffffffffffffffffffffffffffffffffffffff160217905550808273ffffffffffffffffffffffffffffffffffffffff16600073ffffffffffffffffffffffffffffffffffffffff167fddf252ad1be2c89b69c2b068fc378daa952ba7f163c4a11628f55a4df523b3ef60405160405180910390a46116ba600083836001611813565b5050565b6116c7826117cc565b611706576040517f08c379a00000000000000000000000000000000000000000000000000000000081526004016116fd90612ac9565b60405180910390fd5b806006600084815260200190815260200160002090816117269190612c95565b507ff8e1a15aba9398e019f0b49df1a4fde98ee17ae345cb5f6b5e2c27f5033e8ce7826040516117569190611ef2565b60405180910390a15050565b60007f01ffc9a7000000000000000000000000000000000000000000000000000000007bffffffffffffffffffffffffffffffffffffffffffffffffffffffff1916827bffffffffffffffffffffffffffffffffffffffffffffffffffffffff1916149050919050565b60008073ffffffffffffffffffffffffffffffffffffffff166117ee836110d9565b73ffffffffffffffffffffffffffffffffffffffff1614159050919050565b50505050565b50505050565b600061183a8473ffffffffffffffffffffffffffffffffffffffff16611a6e565b15611993578373ffffffffffffffffffffffffffffffffffffffff1663150b7a02611863610c8a565b8786866040518563ffffffff1660e01b81526004016118859493929190612dbc565b6020604051808303816000875af19250505080156118c157506040513d601f19601f820116820180604052508101906118be9190612e1d565b60015b611943573d80600081146118f1576040519150601f19603f3d011682016040523d82523d6000602084013e6118f6565b606091505b50600081510361193b576040517f08c379a00000000000000000000000000000000000000000000000000000000081526004016119329061295f565b60405180910390fd5b805181602001fd5b63150b7a0260e01b7bffffffffffffffffffffffffffffffffffffffffffffffffffffffff1916817bffffffffffffffffffffffffffffffffffffffffffffffffffffffff191614915050611998565b600190505b949350505050565b6060600060016119af84611a91565b01905060008167ffffffffffffffff8111156119ce576119cd611fb0565b5b6040519080825280601f01601f191660200182016040528015611a005781602001600182028036833780820191505090505b509050600082602001820190505b600115611a63578080600190039150507f3031323334353637383961626364656600000000000000000000000000000000600a86061a8153600a8581611a5757611a56612e4a565b5b04945060008503611a0e575b819350505050919050565b6000808273ffffffffffffffffffffffffffffffffffffffff163b119050919050565b600080600090507a184f03e93ff9f4daa797ed6e38ed64bf6a1f0100000000000000008310611aef577a184f03e93ff9f4daa797ed6e38ed64bf6a1f0100000000000000008381611ae557611ae4612e4a565b5b0492506040810190505b6d04ee2d6d415b85acef81000000008310611b2c576d04ee2d6d415b85acef81000000008381611b2257611b21612e4a565b5b0492506020810190505b662386f26fc100008310611b5b57662386f26fc100008381611b5157611b50612e4a565b5b0492506010810190505b6305f5e1008310611b84576305f5e1008381611b7a57611b79612e4a565b5b0492506008810190505b6127108310611ba9576127108381611b9f57611b9e612e4a565b5b0492506004810190505b60648310611bcc5760648381611bc257611bc1612e4a565b5b0492506002810190505b600a8310611bdb576001810190505b80915050919050565b6000604051905090565b600080fd5b600080fd5b60007fffffffff0000000000000000000000000000000000000000000000000000000082169050919050565b611c2d81611bf8565b8114611c3857600080fd5b50565b600081359050611c4a81611c24565b92915050565b600060208284031215611c6657611c65611bee565b5b6000611c7484828501611c3b565b91505092915050565b60008115159050919050565b611c9281611c7d565b82525050565b6000602082019050611cad6000830184611c89565b92915050565b600081519050919050565b600082825260208201905092915050565b60005b83811015611ced578082015181840152602081019050611cd2565b60008484015250505050565b6000601f19601f8301169050919050565b6000611d1582611cb3565b611d1f8185611cbe565b9350611d2f818560208601611ccf565b611d3881611cf9565b840191505092915050565b60006020820190508181036000830152611d5d8184611d0a565b905092915050565b6000819050919050565b611d7881611d65565b8114611d8357600080fd5b50565b600081359050611d9581611d6f565b92915050565b600060208284031215611db157611db0611bee565b5b6000611dbf84828501611d86565b91505092915050565b600073ffffffffffffffffffffffffffffffffffffffff82169050919050565b6000611df382611dc8565b9050919050565b611e0381611de8565b82525050565b6000602082019050611e1e6000830184611dfa565b92915050565b611e2d81611de8565b8114611e3857600080fd5b50565b600081359050611e4a81611e24565b92915050565b60008060408385031215611e6757611e66611bee565b5b6000611e7585828601611e3b565b9250506020611e8685828601611d86565b9150509250929050565b600080600060608486031215611ea957611ea8611bee565b5b6000611eb786828701611e3b565b9350506020611ec886828701611e3b565b9250506040611ed986828701611d86565b9150509250925092565b611eec81611d65565b82525050565b6000602082019050611f076000830184611ee3565b92915050565b600060208284031215611f2357611f22611bee565b5b6000611f3184828501611e3b565b91505092915050565b611f4381611c7d565b8114611f4e57600080fd5b50565b600081359050611f6081611f3a565b92915050565b60008060408385031215611f7d57611f7c611bee565b5b6000611f8b85828601611e3b565b9250506020611f9c85828601611f51565b9150509250929050565b600080fd5b600080fd5b7f4e487b7100000000000000000000000000000000000000000000000000000000600052604160045260246000fd5b611fe882611cf9565b810181811067ffffffffffffffff8211171561200757612006611fb0565b5b80604052505050565b600061201a611be4565b90506120268282611fdf565b919050565b600067ffffffffffffffff82111561204657612045611fb0565b5b61204f82611cf9565b9050602081019050919050565b82818337600083830152505050565b600061207e6120798461202b565b612010565b90508281526020810184848401111561209a57612099611fab565b5b6120a584828561205c565b509392505050565b600082601f8301126120c2576120c1611fa6565b5b81356120d284826020860161206b565b91505092915050565b600080600080608085870312156120f5576120f4611bee565b5b600061210387828801611e3b565b945050602061211487828801611e3b565b935050604061212587828801611d86565b925050606085013567ffffffffffffffff81111561214657612145611bf3565b5b612152878288016120ad565b91505092959194509250565b6000806040838503121561217557612174611bee565b5b600061218385828601611e3b565b925050602061219485828601611e3b565b9150509250929050565b600067ffffffffffffffff8211156121b9576121b8611fb0565b5b6121c282611cf9565b9050602081019050919050565b60006121e26121dd8461219e565b612010565b9050828152602081018484840111156121fe576121fd611fab565b5b61220984828561205c565b509392505050565b600082601f83011261222657612225611fa6565b5b81356122368482602086016121cf565b91505092915050565b60006020828403121561225557612254611bee565b5b600082013567ffffffffffffffff81111561227357612272611bf3565b5b61227f84828501612211565b91505092915050565b7f4e487b7100000000000000000000000000000000000000000000000000000000600052602260045260246000fd5b600060028204905060018216806122cf57607f821691505b6020821081036122e2576122e1612288565b5b50919050565b7f4552433732313a20617070726f76616c20746f2063757272656e74206f776e6560008201527f7200000000000000000000000000000000000000000000000000000000000000602082015250565b6000612344602183611cbe565b915061234f826122e8565b604082019050919050565b6000602082019050818103600083015261237381612337565b9050919050565b7f4552433732313a20617070726f76652063616c6c6572206973206e6f7420746f60008201527f6b656e206f776e6572206f7220617070726f76656420666f7220616c6c000000602082015250565b60006123d6603d83611cbe565b91506123e18261237a565b604082019050919050565b60006020820190508181036000830152612405816123c9565b9050919050565b7f4552433732313a2063616c6c6572206973206e6f7420746f6b656e206f776e6560008201527f72206f7220617070726f76656400000000000000000000000000000000000000602082015250565b6000612468602d83611cbe565b91506124738261240c565b604082019050919050565b600060208201905081810360008301526124978161245b565b9050919050565b7f4552433732313a20696e76616c696420746f6b656e2049440000000000000000600082015250565b60006124d4601883611cbe565b91506124df8261249e565b602082019050919050565b60006020820190508181036000830152612503816124c7565b9050919050565b7f4552433732313a2061646472657373207a65726f206973206e6f74206120766160008201527f6c6964206f776e65720000000000000000000000000000000000000000000000602082015250565b6000612566602983611cbe565b91506125718261250a565b604082019050919050565b6000602082019050818103600083015261259581612559565b9050919050565b600081905092915050565b60006125b282611cb3565b6125bc818561259c565b93506125cc818560208601611ccf565b80840191505092915050565b60006125e482856125a7565b91506125f082846125a7565b91508190509392505050565b7f4f776e61626c653a206e6577206f776e657220697320746865207a65726f206160008201527f6464726573730000000000000000000000000000000000000000000000000000602082015250565b6000612658602683611cbe565b9150612663826125fc565b604082019050919050565b600060208201905081810360008301526126878161264b565b9050919050565b7f4e487b7100000000000000000000000000000000000000000000000000000000600052601160045260246000fd5b60006126c882611d65565b91506126d383611d65565b92508282019050808211156126eb576126ea61268e565b5b92915050565b7f4552433732313a207472616e736665722066726f6d20696e636f72726563742060008201527f6f776e6572000000000000000000000000000000000000000000000000000000602082015250565b600061274d602583611cbe565b9150612758826126f1565b604082019050919050565b6000602082019050818103600083015261277c81612740565b9050919050565b7f4552433732313a207472616e7366657220746f20746865207a65726f2061646460008201527f7265737300000000000000000000000000000000000000000000000000000000602082015250565b60006127df602483611cbe565b91506127ea82612783565b604082019050919050565b6000602082019050818103600083015261280e816127d2565b9050919050565b7f4f776e61626c653a2063616c6c6572206973206e6f7420746865206f776e6572600082015250565b600061284b602083611cbe565b915061285682612815565b602082019050919050565b6000602082019050818103600083015261287a8161283e565b9050919050565b7f4552433732313a20617070726f766520746f2063616c6c657200000000000000600082015250565b60006128b7601983611cbe565b91506128c282612881565b602082019050919050565b600060208201905081810360008301526128e6816128aa565b9050919050565b7f4552433732313a207472616e7366657220746f206e6f6e20455243373231526560008201527f63656976657220696d706c656d656e7465720000000000000000000000000000602082015250565b6000612949603283611cbe565b9150612954826128ed565b604082019050919050565b600060208201905081810360008301526129788161293c565b9050919050565b7f4552433732313a206d696e7420746f20746865207a65726f2061646472657373600082015250565b60006129b5602083611cbe565b91506129c08261297f565b602082019050919050565b600060208201905081810360008301526129e4816129a8565b9050919050565b7f4552433732313a20746f6b656e20616c7265616479206d696e74656400000000600082015250565b6000612a21601c83611cbe565b9150612a2c826129eb565b602082019050919050565b60006020820190508181036000830152612a5081612a14565b9050919050565b7f45524337323155524953746f726167653a2055524920736574206f66206e6f6e60008201527f6578697374656e7420746f6b656e000000000000000000000000000000000000602082015250565b6000612ab3602e83611cbe565b9150612abe82612a57565b604082019050919050565b60006020820190508181036000830152612ae281612aa6565b9050919050565b60008190508160005260206000209050919050565b60006020601f8301049050919050565b600082821b905092915050565b600060088302612b4b7fffffffffffffffffffffffffffffffffffffffffffffffffffffffffffffffff82612b0e565b612b558683612b0e565b95508019841693508086168417925050509392505050565b6000819050919050565b6000612b92612b8d612b8884611d65565b612b6d565b611d65565b9050919050565b6000819050919050565b612bac83612b77565b612bc0612bb882612b99565b848454612b1b565b825550505050565b600090565b612bd5612bc8565b612be0818484612ba3565b505050565b5b81811015612c0457612bf9600082612bcd565b600181019050612be6565b5050565b601f821115612c4957612c1a81612ae9565b612c2384612afe565b81016020851015612c32578190505b612c46612c3e85612afe565b830182612be5565b50505b505050565b600082821c905092915050565b6000612c6c60001984600802612c4e565b1980831691505092915050565b6000612c858383612c5b565b9150826002028217905092915050565b612c9e82611cb3565b67ffffffffffffffff811115612cb757612cb6611fb0565b5b612cc182546122b7565b612ccc828285612c08565b600060209050601f831160018114612cff5760008415612ced578287015190505b612cf78582612c79565b865550612d5f565b601f198416612d0d86612ae9565b60005b82811015612d3557848901518255600182019150602085019450602081019050612d10565b86831015612d525784890151612d4e601f891682612c5b565b8355505b6001600288020188555050505b505050505050565b600081519050919050565b600082825260208201905092915050565b6000612d8e82612d67565b612d988185612d72565b9350612da8818560208601611ccf565b612db181611cf9565b840191505092915050565b6000608082019050612dd16000830187611dfa565b612dde6020830186611dfa565b612deb6040830185611ee3565b8181036060830152612dfd8184612d83565b905095945050505050565b600081519050612e1781611c24565b92915050565b600060208284031215612e3357612e32611bee565b5b6000612e4184828501612e08565b91505092915050565b7f4e487b7100000000000000000000000000000000000000000000000000000000600052601260045260246000fdfea26469706673582212204a2dfc23e9ac1e70ddfb839f0507344d336cb03dd0ae7b029f13e0a80ec84f9364736f6c63430008120033",
  "devdoc": {
    "events": {
      "Approval(address,address,uint256)": {
        "details": "Emitted when `owner` enables `approved` to manage the `tokenId` token."
      },
      "ApprovalForAll(address,address,bool)": {
        "details": "Emitted when `owner` enables or disables (`approved`) `operator` to manage all of its assets."
      },
      "BatchMetadataUpdate(uint256,uint256)": {
        "details": "This event emits when the metadata of a range of tokens is changed. So that the third-party platforms such as NFT market could timely update the images and related attributes of the NFTs."
      },
      "MetadataUpdate(uint256)": {
        "details": "This event emits when the metadata of a token is changed. So that the third-party platforms such as NFT market could timely update the images and related attributes of the NFT."
      },
      "Transfer(address,address,uint256)": {
        "details": "Emitted when `tokenId` token is transferred from `from` to `to`."
      }
    },
    "kind": "dev",
    "methods": {
      "approve(address,uint256)": {
        "details": "See {IERC721-approve}."
      },
      "balanceOf(address)": {
        "details": "See {IERC721-balanceOf}."
      },
      "getApproved(uint256)": {
        "details": "See {IERC721-getApproved}."
      },
      "isApprovedForAll(address,address)": {
        "details": "See {IERC721-isApprovedForAll}."
      },
      "name()": {
        "details": "See {IERC721Metadata-name}."
      },
      "owner()": {
        "details": "Returns the address of the current owner."
      },
      "ownerOf(uint256)": {
        "details": "See {IERC721-ownerOf}."
      },
      "renounceOwnership()": {
        "details": "Leaves the contract without owner. It will not be possible to call `onlyOwner` functions. Can only be called by the current owner. NOTE: Renouncing ownership will leave the contract without an owner, thereby disabling any functionality that is only available to the owner."
      },
      "safeTransferFrom(address,address,uint256)": {
        "details": "See {IERC721-safeTransferFrom}."
      },
      "safeTransferFrom(address,address,uint256,bytes)": {
        "details": "See {IERC721-safeTransferFrom}."
      },
      "setApprovalForAll(address,bool)": {
        "details": "See {IERC721-setApprovalForAll}."
      },
      "supportsInterface(bytes4)": {
        "details": "See {IERC165-supportsInterface}"
      },
      "symbol()": {
        "details": "See {IERC721Metadata-symbol}."
      },
      "tokenURI(uint256)": {
        "details": "See {IERC721Metadata-tokenURI}."
      },
      "transferFrom(address,address,uint256)": {
        "details": "See {IERC721-transferFrom}."
      },
      "transferOwnership(address)": {
        "details": "Transfers ownership of the contract to a new account (`newOwner`). Can only be called by the current owner."
      }
    },
    "version": 1
  },
  "userdoc": {
    "kind": "user",
    "methods": {},
    "version": 1
  },
  "storageLayout": {
    "storage": [
      {
        "astId": 1519,
        "contract": "contracts/NFT.sol:NFT",
        "label": "_name",
        "offset": 0,
        "slot": "0",
        "type": "t_string_storage"
      },
      {
        "astId": 1521,
        "contract": "contracts/NFT.sol:NFT",
        "label": "_symbol",
        "offset": 0,
        "slot": "1",
        "type": "t_string_storage"
      },
      {
        "astId": 1525,
        "contract": "contracts/NFT.sol:NFT",
        "label": "_owners",
        "offset": 0,
        "slot": "2",
        "type": "t_mapping(t_uint256,t_address)"
      },
      {
        "astId": 1529,
        "contract": "contracts/NFT.sol:NFT",
        "label": "_balances",
        "offset": 0,
        "slot": "3",
        "type": "t_mapping(t_address,t_uint256)"
      },
      {
        "astId": 1533,
        "contract": "contracts/NFT.sol:NFT",
        "label": "_tokenApprovals",
        "offset": 0,
        "slot": "4",
        "type": "t_mapping(t_uint256,t_address)"
      },
      {
        "astId": 1539,
        "contract": "contracts/NFT.sol:NFT",
        "label": "_operatorApprovals",
        "offset": 0,
        "slot": "5",
        "type": "t_mapping(t_address,t_mapping(t_address,t_bool))"
      },
      {
        "astId": 2570,
        "contract": "contracts/NFT.sol:NFT",
        "label": "_tokenURIs",
        "offset": 0,
        "slot": "6",
        "type": "t_mapping(t_uint256,t_string_storage)"
      },
      {
        "astId": 1360,
        "contract": "contracts/NFT.sol:NFT",
        "label": "_owner",
        "offset": 0,
        "slot": "7",
        "type": "t_address"
      },
      {
        "astId": 4709,
        "contract": "contracts/NFT.sol:NFT",
        "label": "_tokenIds",
        "offset": 0,
        "slot": "8",
        "type": "t_uint256"
      }
    ],
    "types": {
      "t_address": {
        "encoding": "inplace",
        "label": "address",
        "numberOfBytes": "20"
      },
      "t_bool": {
        "encoding": "inplace",
        "label": "bool",
        "numberOfBytes": "1"
      },
      "t_mapping(t_address,t_bool)": {
        "encoding": "mapping",
        "key": "t_address",
        "label": "mapping(address => bool)",
        "numberOfBytes": "32",
        "value": "t_bool"
      },
      "t_mapping(t_address,t_mapping(t_address,t_bool))": {
        "encoding": "mapping",
        "key": "t_address",
        "label": "mapping(address => mapping(address => bool))",
        "numberOfBytes": "32",
        "value": "t_mapping(t_address,t_bool)"
      },
      "t_mapping(t_address,t_uint256)": {
        "encoding": "mapping",
        "key": "t_address",
        "label": "mapping(address => uint256)",
        "numberOfBytes": "32",
        "value": "t_uint256"
      },
      "t_mapping(t_uint256,t_address)": {
        "encoding": "mapping",
        "key": "t_uint256",
        "label": "mapping(uint256 => address)",
        "numberOfBytes": "32",
        "value": "t_address"
      },
      "t_mapping(t_uint256,t_string_storage)": {
        "encoding": "mapping",
        "key": "t_uint256",
        "label": "mapping(uint256 => string)",
        "numberOfBytes": "32",
        "value": "t_string_storage"
      },
      "t_string_storage": {
        "encoding": "bytes",
        "label": "string",
        "numberOfBytes": "32"
      },
      "t_uint256": {
        "encoding": "inplace",
        "label": "uint256",
        "numberOfBytes": "32"
      }
    }
  }
}