{
  "address": "0x87fa98012847A332bA35AaC86f45F1a3eEDBc503",
  "abi": [
    {
      "inputs": [
        {
          "internalType": "address",
          "name": "_addressProvider",
          "type": "address"
        }
      ],
      "stateMutability": "nonpayable",
      "type": "constructor"
    },
    {
      "inputs": [],
      "name": "ADDRESSES_PROVIDER",
      "outputs": [
        {
          "internalType": "contract IPoolAddressesProvider",
          "name": "",
          "type": "address"
        }
      ],
      "stateMutability": "view",
      "type": "function"
    },
    {
      "inputs": [],
      "name": "POOL",
      "outputs": [
        {
          "internalType": "contract IPool",
          "name": "",
          "type": "address"
        }
      ],
      "stateMutability": "view",
      "type": "function"
    },
    {
      "inputs": [
        {
          "internalType": "address",
          "name": "asset",
          "type": "address"
        },
        {
          "internalType": "uint256",
          "name": "amount",
          "type": "uint256"
        },
        {
          "internalType": "uint256",
          "name": "premium",
          "type": "uint256"
        },
        {
          "internalType": "address",
          "name": "",
          "type": "address"
        },
        {
          "internalType": "bytes",
          "name": "",
          "type": "bytes"
        }
      ],
      "name": "executeOperation",
      "outputs": [
        {
          "internalType": "bool",
          "name": "",
          "type": "bool"
        }
      ],
      "stateMutability": "nonpayable",
      "type": "function"
    },
    {
      "inputs": [
        {
          "internalType": "address",
          "name": "_token",
          "type": "address"
        },
        {
          "internalType": "uint256",
          "name": "_amount",
          "type": "uint256"
        }
      ],
      "name": "fn_RequestFlashLoan",
      "outputs": [],
      "stateMutability": "nonpayable",
      "type": "function"
    },
    {
      "stateMutability": "payable",
      "type": "receive"
    }
  ],
  "transactionHash": "0xd28e8ef4255a83d0aaa6a2f238f1d5f2660a0a01c968994016b7f19159d37ad3",
  "args": [
    "0x0496275d34753A48320CA58103d5220d394FF77F"
  ],
  "numDeployments": 1,
  "solcInputHash": "f5f46a9ae93ec8a6dfd2598f8de0cc6e",
  "bytecode": "0x60c060405234801561001057600080fd5b506040516109da3803806109da83398181016040528101906100329190610173565b808073ffffffffffffffffffffffffffffffffffffffff1660808173ffffffffffffffffffffffffffffffffffffffff16815250508073ffffffffffffffffffffffffffffffffffffffff1663026b1d5f6040518163ffffffff1660e01b8152600401602060405180830381865afa1580156100b2573d6000803e3d6000fd5b505050506040513d601f19601f820116820180604052508101906100d69190610173565b73ffffffffffffffffffffffffffffffffffffffff1660a08173ffffffffffffffffffffffffffffffffffffffff168152505050506101a0565b600080fd5b600073ffffffffffffffffffffffffffffffffffffffff82169050919050565b600061014082610115565b9050919050565b61015081610135565b811461015b57600080fd5b50565b60008151905061016d81610147565b92915050565b60006020828403121561018957610188610110565b5b60006101978482850161015e565b91505092915050565b60805160a0516108076101d36000396000818161015e015281816101f001526102390152600061010d01526108076000f3fe6080604052600436106100435760003560e01c80630542975c1461004f5780631b11d0ff1461007a5780637535d246146100b757806387c7f0ac146100e25761004a565b3661004a57005b600080fd5b34801561005b57600080fd5b5061006461010b565b6040516100719190610352565b60405180910390f35b34801561008657600080fd5b506100a1600480360381019061009c9190610450565b61012f565b6040516100ae9190610505565b60405180910390f35b3480156100c357600080fd5b506100cc6101ee565b6040516100d99190610541565b60405180910390f35b3480156100ee57600080fd5b506101096004803603810190610104919061055c565b610212565b005b7f000000000000000000000000000000000000000000000000000000000000000081565b600080858761013e91906105cb565b90508773ffffffffffffffffffffffffffffffffffffffff1663095ea7b37f0000000000000000000000000000000000000000000000000000000000000000836040518363ffffffff1660e01b815260040161019b92919061063f565b6020604051808303816000875af11580156101ba573d6000803e3d6000fd5b505050506040513d601f19601f820116820180604052508101906101de9190610694565b5060019150509695505050505050565b7f000000000000000000000000000000000000000000000000000000000000000081565b600030905060008390506000839050600060405180602001604052806000815250905060007f000000000000000000000000000000000000000000000000000000000000000073ffffffffffffffffffffffffffffffffffffffff166342b0b77c86868686866040518663ffffffff1660e01b8152600401610298959493929190610777565b600060405180830381600087803b1580156102b257600080fd5b505af11580156102c6573d6000803e3d6000fd5b5050505050505050505050565b600073ffffffffffffffffffffffffffffffffffffffff82169050919050565b6000819050919050565b600061031861031361030e846102d3565b6102f3565b6102d3565b9050919050565b600061032a826102fd565b9050919050565b600061033c8261031f565b9050919050565b61034c81610331565b82525050565b60006020820190506103676000830184610343565b92915050565b600080fd5b600080fd5b6000610382826102d3565b9050919050565b61039281610377565b811461039d57600080fd5b50565b6000813590506103af81610389565b92915050565b6000819050919050565b6103c8816103b5565b81146103d357600080fd5b50565b6000813590506103e5816103bf565b92915050565b600080fd5b600080fd5b600080fd5b60008083601f8401126104105761040f6103eb565b5b8235905067ffffffffffffffff81111561042d5761042c6103f0565b5b602083019150836001820283011115610449576104486103f5565b5b9250929050565b60008060008060008060a0878903121561046d5761046c61036d565b5b600061047b89828a016103a0565b965050602061048c89828a016103d6565b955050604061049d89828a016103d6565b94505060606104ae89828a016103a0565b935050608087013567ffffffffffffffff8111156104cf576104ce610372565b5b6104db89828a016103fa565b92509250509295509295509295565b60008115159050919050565b6104ff816104ea565b82525050565b600060208201905061051a60008301846104f6565b92915050565b600061052b8261031f565b9050919050565b61053b81610520565b82525050565b60006020820190506105566000830184610532565b92915050565b600080604083850312156105735761057261036d565b5b6000610581858286016103a0565b9250506020610592858286016103d6565b9150509250929050565b7f4e487b7100000000000000000000000000000000000000000000000000000000600052601160045260246000fd5b60006105d6826103b5565b91506105e1836103b5565b9250827fffffffffffffffffffffffffffffffffffffffffffffffffffffffffffffffff038211156106165761061561059c565b5b828201905092915050565b61062a81610377565b82525050565b610639816103b5565b82525050565b60006040820190506106546000830185610621565b6106616020830184610630565b9392505050565b610671816104ea565b811461067c57600080fd5b50565b60008151905061068e81610668565b92915050565b6000602082840312156106aa576106a961036d565b5b60006106b88482850161067f565b91505092915050565b600081519050919050565b600082825260208201905092915050565b60005b838110156106fb5780820151818401526020810190506106e0565b8381111561070a576000848401525b50505050565b6000601f19601f8301169050919050565b600061072c826106c1565b61073681856106cc565b93506107468185602086016106dd565b61074f81610710565b840191505092915050565b600061ffff82169050919050565b6107718161075a565b82525050565b600060a08201905061078c6000830188610621565b6107996020830187610621565b6107a66040830186610630565b81810360608301526107b88185610721565b90506107c76080830184610768565b969550505050505056fea26469706673582212207708a7546f0dfbb895f650098d1b36cadb3ff3e275f3c13ba6eb4cf90e38a9e364736f6c634300080a0033",
  "devdoc": {
    "kind": "dev",
    "methods": {},
    "version": 1
  },
  "userdoc": {
    "kind": "user",
    "methods": {},
    "version": 1
  },
  "storageLayout": {
    "storage": [
      {
        "astId": 1361,
        "contract": "contracts/SimpleFlashLoan.sol:SimpleFlashLoan",
        "label": "owner",
        "offset": 0,
        "slot": "0",
        "type": "t_address_payable"
      }
    ],
    "types": {
      "t_address_payable": {
        "encoding": "inplace",
        "label": "address payable",
        "numberOfBytes": "20"
      }
    }
  }
}